:020000040000FA
:100000000214DF010A00010F00010900010E0001C6
:100010000B00010C004C00230129000001F400003A
:1000200000000000C10000E4F5D922021B3B75A4CA
:100030000875E10475E2407580FF220214467E00D7
:100040007C037DE8120A358F828E83E4FCFD7BFF02
:100050007AFFF9F8C3120C21500674FFF583F5827C
:10006000C3E49582FFE49583F5CB8FCAC200D2CA60
:01007000226D
:10007300021AFC8B218A2289231209BB60157D8910
:10008300121A62AB21AA22A923EF4401F5337D8919
:10009300121A1EAB21AA22A923E4F5337D88121A72
:1000A3001EAB21AA22A9237533017D80121A1E12C9
:1000B3001A13AB21AA22A923E4F533FD121A1EABAE
:1000C30021AA22A9237D91121A62AB21AA22A92374
:1000D300900007EF120A13753301E4FD121A1EABE9
:1000E30021AA22A923E4F5337DFF121A1EAB21AA0C
:1000F30022A923E4F5337D80121A1EAB21AA22A97B
:10010300237D60121A62EF4412F533AB21AA22A9B0
:10011300237D60121A1EAB21AA22A9237F007E0031
:100123007D807C3E1216F1AB21AA22A9237533FFF1
:100133007D01121A1E752900752A00752B24752C52
:1001430000752D00752E25AB21AA22A92312107A42
:10015300400122752A01752B00752C00752D06AB05
:1001630021AA22A9237DB0121ADA121A13AB21AAEB
:1001730022A923E4F5337D4F121A1EAB21AA22A92B
:100183002375332C7D4E121A1EAB21AA22A923E418
:10019300F5337DFF121A1EAB21AA22A9237533B4AE
:1001A3007DB6121A1EE5257F0060027F0CE4FEFD7A
:1001B300EDC39430748094805052EDC39F4004EE9D
:1001C300B52424ED131313541F2400F582E43400E3
:1001D300F583E0FCED5407FBF87401088002C33398
:1001E300D8FCF45CF08022ED131313541F2400F5A4
:1001F30082E43400F583E0FCED5407FBF8EC08805F
:1002030002C313D8FC30E0010E0D80A4752A0175DA
:100213002B00752C00752D06AB21AA22A9237DB0D6
:10022300121AC7121A13AB21AA22A923E4F533FD2C
:10023300121A1EAB21AA22A923E4F5337DFF121A59
:100243001EAB21AA22A923E4F5337D09121A1EABA2
:1002530021AA22A923E4F5337D10121A1EAB21AA89
:1002630022A923E4F5337D11121A1EAB21AA22A978
:10027300237533017D24121A1EAB21AA22A92375EB
:1002830033FF7D25121A1EAB21AA22A923E4F533DD
:100293007D75121A1E121A13AB21AA22A9237533D4
:1002A3002C7D4E121A1EAB21AA22A923E4F5337D1D
:1002B30048121A1EAB21AA22A9237533207D3012BE
:1002C3001A1EAB21AA22A923E4F5337DFF121A1EBD
:1002D300AB21AA22A9237533097D30121A1EAB2143
:1002E300AA22A923E4F5337D54121A1EAB21AA22B4
:1002F300A9237533047D31121A1EAB21AA22A92327
:100303007533037D32121A1EAB21AA22A92375333A
:10031300837D40121A1EAB21AA22A9237533257DA2
:1003230046121A1EAB21AA22A923E4F5337D6012DB
:100333001A1EAB21AA22A923E4F5337D27121A1E24
:10034300AB21AA22A9237533067D50121A1EAB21B5
:10035300AA22A923E4F5337D51121A1EAB21AA2246
:10036300A9237533967D52121A1EAB21AA22A92303
:100373007533087D56121A1EAB21AA22A9237533A1
:10038300307D57121A1EAB21AA22A923E4F5337D2F
:1003930061121A1EAB21AA22A923E4F5337D62124E
:1003A3001A1EAB21AA22A923E4F5337D64121A1E77
:1003B300AB21AA22A923E4F5337D65121A1EAB21D2
:1003C300AA22A9237533A07D66121A1E121A13AB33
:1003D30021AA22A9237533327D22121A1EAB21AA28
:1003E30022A9237533147D47121A1EAB21AA22A911
:1003F300237533FF7D49121A1EAB21AA22A923E4D8
:10040300F5337D4A121A1EAB21AA22A923E4F53340
:100413007DFF121A1EAB21AA22A92375330A7D7A06
:10042300121A1EAB21AA22A923E4F5337D7B121AEB
:100433001EAB21AA22A9237533217D78121A1E121D
:100443001A13AB21AA22A9237533347D23121A1E52
:10045300AB21AA22A923E4F5337D42121A1EAB2154
:10046300AA22A9237533FF7D44121A1EAB21AA22A7
:10047300A9237533267D45121A1EAB21AA22A9236F
:100483007533057D46121A1EAB21AA22A9237533A3
:10049300407D40121A1EAB21AA22A9237533067D83
:1004A3000E121A1EAB21AA22A92375331A7D20121C
:1004B3001A1EAB21AA22A9237533407D43121A1EAB
:1004C300AB21AA22A923E4F5337DFF121A1EAB2127
:1004D300AA22A9237533037D34121A1EAB21AA2243
:1004E300A9237533447D35121A1E121A13AB21AAA0
:1004F30022A9237533047D31121A1EAB21AA22A926
:10050300237533097D4B121A1EAB21AA22A9237529
:1005130033057D4C121A1EAB21AA22A9237533047D
:100523007D4D121A1EAB21AA22A923E4F5337DFFC8
:10053300121A1EAB21AA22A923E4F5337D44121A11
:100543001EAB21AA22A9237533207D45121A1EABA7
:1005530021AA22A9237533087D47121A1EAB21AAAB
:1005630022A9237533287D48121A1EAB21AA22A97A
:1005730023E4F5337D67121A1EAB21AA22A9237542
:1005830033047D70121A1EAB21AA22A923753301ED
:100593007D71121A1EAB21AA22A9237533FE7D7227
:1005A300121A1EAB21AA22A923E4F5337D76121A6F
:1005B3001EAB21AA22A923E4F5337D77121A1E125A
:1005C3001A13AB21AA22A9237533017D0D121A1E1A
:1005D300AB21AA22A923E4F5337DFF121A1EAB2116
:1005E300AA22A9237533017D80121A1EAB21AA22E8
:1005F300A9237533F87D01121A1E121A13AB21AA0F
:1006030022A9237533017D8E121A1EAB21AA22A9BA
:1006130023753301E4FD121A1EAB21AA22A923E498
:10062300F5337DFF121A1EAB21AA22A923E4F53369
:100633007D80121A1EAB21AA22A9237533047D0AD9
:10064300121A1EAB21AA22A9237D84121A62EF5427
:10065300EFF533AB21AA22A9237D84121A1EAB2105
:10066300AA22A9237533017D0B121A1EAB21AA22DC
:10067300A923120EFEAB21AA22A923900008120C73
:100683008B7533E87D01121A1EAB21AA22A923120E
:100693000D07AB21AA22A9237533017D01121A1E6E
:1006A300AB21AA22A9237D401217A8400122AB2126
:1006B300AA22A9237533027D01121A1EAB21AA2295
:1006C300A923E4FD1217A8400122AB21AA22A923E2
:1006D3007533E87D01121A1ED322EC4D6011E849EF
:1006E3007017ED33EC3304600DE4FCFFFEFD22E9EB
:1006F30033E8330470F80209A6120971580460093B
:10070300E4CC248150062850090209B02840030292
:1007130009ADC0E0EB4A7044B98006D0E0FB0209A2
:100723009CEF4E701CBD8008EBFFEAFEE9FD80EBF9
:10073300E98DF0A4FEE5F00207C6E9CDF9EAFEEB88
:10074300FFEF89F0A4FCE5F0CE89F0A42EFFE43599
:10075300F0CD89F0A42DFEE435F08067EF4E7005EF
:10076300BD80D780C3EF8BF0A4ACF0EE8BF0A42C4C
:10077300FCE435F0F8EF8AF0A42CE5F038FCE43320
:10078300CB8DF0A42CFCE5F03BF8EE8AF0A42CFC16
:10079300E5F038F8E433CF89F0A42CFCE5F038CF4A
:1007A3003400CE89F0A42FFFE5F03EFEE433C98D7B
:1007B300F0A42EFEE5F039CD8AF0A42FFFE5F03E3C
:1007C300FEE43DFD33D0E0FB50070BBB000F0209F5
:1007D300B0EC2CFCEF33FFEE33FEED33FD02098862
:1007E3000209B0EC5D046005E8590470030209A630
:1007F300120971580460F6EC4860F2EC7004FDFED7
:10080300FF22C860DB2481C85009C39860025006E8
:100813000209AD9850CAF582E9294B4A7005AB82AB
:1008230002099C75F0007C1A7880C3EF9BEE9AED69
:1008330099400DC3EF9BFFEE9AFEED99FDE842F060
:10084300DC23ACF0D0E0FFD0E0FED0E0FDAB8220B3
:10085300E7101BEB60BAEC2CFCEF33FFEE33FEED3D
:1008630033FD020988E803F830E705C0F075F000AE
:10087300EF2FFFEE33FEED33FD40B830E7C280AA21
:1008830074F8CC6480CCC86480C8F58204604FC31C
:10089300EB9FF5F0EA9E42F0E99D42F0E89C45F0BB
:1008A300603C501DE5825FFFE582D313CB5BCBF445
:1008B3002B5582FB50280ABA002409B9002008806E
:1008C3001DE5825BFBE582D313CF5FCFF4C3132F08
:1008D3005582FF50090EBE00050DBD00010CC3EB90
:1008E3009FF5F0EA9E42F0E99D42F0E89C45F060F6
:1008F30007CC4820E701B3EC2275F020800E75F099
:1009030010800575F0087D007E007F003392D5309E
:10091300D503120C13EC334010EF33FFEE33FEED2F
:1009230033FDEC33FCD5F0ED22E5F0247EA2D513A4
:10093300CC92E7CDCEFF22EDD2E7CD33EC3392D587
:1009430024814006E4FFFEFDFC22FCE4CFCECDCCA7
:1009530024E0501174FF80EDC3CC13CCCD13CDCE66
:1009630013CECF13CF0470F030D5DE020C13E9D2CF
:10097300E7C933E833F892D5EDD2E7CD33EC33FC56
:100983005002B2D522EC30E7100FBF000C0EBE00B0
:10099300080DBD00040BEB6014A2D5EB13FCED9224
:1009A300E7FD2274FFFCFDFEFF22E480F8A2D5746C
:1009B300FF13FC7D80E480EFBB010689828A83E01C
:1009C300225002E722BBFE02E32289828A83E49358
:1009D30022BB010CE58229F582E5833AF583E02207
:1009E3005006E92582F8E622BBFE06E92582F8E2F5
:1009F30022E58229F582E5833AF583E49322BB015C
:100A03000689828A83F0225002F722BBFE01F32279
:100A1300F8BB010DE58229F582E5833AF583E8F019
:100A2300225006E92582C8F622BBFE05E92582C8C5
:100A3300F222EF8DF0A4A8F0CF8CF0A428CE8DF095
:100A4300A42EFE22BB010A89828A83E0F5F0A3E08B
:100A530022500687F009E71922BBFE07E3F5F009E8
:100A6300E3192289828A83E493F5F074019322BB0C
:100A73000110E58229F582E5833AF583E0F5F0A3D9
:100A8300E0225009E92582F886F008E622BBFE0A37
:100A9300E92582F8E2F5F008E222E5832AF583E905
:100AA30093F5F0A3E99322BB010A89828A83F0E5D7
:100AB300F0A3F0225006F709A7F01922BBFE06F3B4
:100AC300E5F009F31922F8BB0111E58229F582E566
:100AD300833AF583E8F0E5F0A3F0225009E9258293
:100AE300C8F608A6F022BBFE09E92582C8F2E5F0A4
:100AF30008F222E88FF0A4CC8BF0A42CFCE98EF052
:100B0300A42CFC8AF0EDA42CFCEA8EF0A4CDA8F072
:100B13008BF0A42DCC3825F0FDE98FF0A42CCD3536
:100B2300F0FCEB8EF0A4FEA9F0EB8FF0A4CFC5F0A0
:100B33002ECD39FEE43CFCEAA42DCE35F0FDE43C99
:100B4300FC2275F008758200EF2FFFEE33FECD33E4
:100B5300CDCC33CCC58233C5829BED9AEC99E5822B
:100B630098400CF582EE9BFEED9AFDEC99FC0FD5B7
:100B7300F0D6E4CEFBE4CDFAE4CCF9A88222B800A7
:100B8300C1B90059BA002DEC8BF084CFCECDFCE572
:100B9300F0CBF97818EF2FFFEE33FEED33FDEC3396
:100BA300FCEB33FB10D703994004EB99FB0FD8E51B
:100BB300E4F9FA227818EF2FFFEE33FEED33FDEC64
:100BC30033FCC933C910D7059BE99A4007EC9BFC5A
:100BD300E99AF90FD8E0E4C9FAE4CCFB2275F010E6
:100BE300EF2FFFEE33FEED33FDCC33CCC833C8100B
:100BF300D7079BEC9AE899400AED9BFDEC9AFCE839
:100C030099F80FD5F0DAE4CDFBE4CCFAE4C8F92285
:100C1300C3E49FFFE49EFEE49DFDE49CFC22EB9F66
:100C2300F5F0EA9E42F0E99D42F0EC6480C86480EE
:100C33009845F022EB9FF5F0EA9E42F0E99D42F0E1
:100C4300E89C45F022E8600FECC313FCED13FDEEC6
:100C530013FEEF13FFD8F122BB010DE58229F582C4
:100C6300E5833AF583020CC75007E92582F8020CA5
:100C7300BBBBFE07E92582F8020CD3E58229F58286
:100C8300E5833AF583020CDFBB010DE58229F5828A
:100C9300E5833AF583020CAF5007E92582F8020C8D
:100CA300EFBBFE07E92582F8020CFB22ECF0A3ED73
:100CB300F0A3EEF0A3EFF022E6FC08E6FD08E6FE63
:100CC30008E6FF22E0FCA3E0FDA3E0FEA3E0FF2291
:100CD300E2FC08E2FD08E2FE08E2FF22E493FC7472
:100CE3000193FD740293FE740393FF22ECF608ED67
:100CF300F608EEF608EFF622ECF208EDF208EEF253
:100D030008EFF222900008120C5B8B268A278928B1
:100D13008F2C8E2B8D2A8C297531057532289003E3
:100D2300C075330275349475350275364E753702C6
:100D33007538B2753902753A94753B02753C267F56
:100D4300207E4E7D007C00AB2CAA2BA92AA829C3A8
:100D5300120C375002C322E5322582FFE531358379
:100D6300FEE48F308E2FF52EF52D75400175410071
:100D7300754206AB26AA27A92812192B75400175BF
:100D8300410075420675430175440075450BAB265A
:100D9300AA27A9281211BA900006E06031E4FCFDED
:100DA300900015E0F8A3E0F9A3E0FAA3E02536FFED
:100DB300EA3535FEED39FDEC38FCE5302FF530E54D
:100DC3002F3EF52FE52E3DF52EE52D3CF52D90001C
:100DD30008E06028E4FCFD900015E0F8A3E0F9A327
:100DE300E0FAA3E02538FFEA3537FEED39FDEC38AC
:100DF300FCE47B02FAF9F8120AF68023900007E07C
:100E03006031E4FCFD900015E0F8A3E0F9A3E0FAFB
:100E1300A3E02534FFEA3533FEED39FDEC38FCE57C
:100E2300302FF530E52F3EF52FE52E3DF52EE52D40
:100E33003CF52D900009E06031E4FCFD900019E0E1
:100E4300F8A3E0F9A3E0FAA3E0253AFFEA3539FE77
:100E5300ED39FDEC38FCE5302FF530E52F3EF52F6D
:100E6300E52E3DF52EE52D3CF52D90000AE07003AF
:100E7300020EFCE4FCFDE530253CF530E52F353B67
:100E8300F52FED352EF52EEC352DF52DAF2CAE2BA4
:100E9300AD2AAC29AB30AA2FA92EF8D3120C3740B8
:100EA3000122C3E52C9530FFE52B952FFEE52A950E
:100EB3002EFDE529952DFC90000DA3E0F5411215BB
:100EC3007C900009E0600C900011E0FCA3E02FFF90
:100ED300EC3EFE12167B8E418F42AB26AA27A92831
:100EE3007D71121A3DAF2CAE2BAD2AAC29AB26AACD
:100EF30027A928900008120C8BD3228B268A2789D6
:100F030028752902752A94752B02752C4E752D02AE
:100F1300752EB2752F0275309475310275322674B1
:100F23007624C0FF74073403FEE48F368E35F53420
:100F3300F53375400175410075420612192B754052
:100F43000175410075420675430175440075450BF3
:100F5300AB26AA27A9281211BA900006E06031E453
:100F6300FCFD900015E0F8A3E0F9A3E0FAA3E02567
:100F73002CFFEA352BFEED39FDEC38FCE5362FF579
:100F830036E5353EF535E5343DF534E5333CF533AB
:100F9300900008E06028E4FCFD900015E0F8A3E071
:100FA300F9A3E0FAA3E0252EFFEA352DFEED39FD86
:100FB300EC38FCE47B02FAF9F8120AF6802390007D
:100FC30007E06031E4FCFD900015E0F8A3E0F9A32D
:100FD300E0FAA3E0252AFFEA3529FEED39FDEC38D6
:100FE300FCE5362FF536E5353EF535E5343DF5348C
:100FF300E5333CF533900009E06031E4FCFD9000FB
:1010030019E0F8A3E0F9A3E0FAA3E02530FFEA35FD
:101013002FFEED39FDEC38FCE5362FF536E5353E90
:10102300F535E5343DF534E5333CF53390000AE01E
:101033006031E4FCFD90001DE0F8A3E0F9A3E0FAC1
:10104300A3E02532FFEA3531FEED39FDEC38FCE54E
:10105300362FF536E5353EF535E5343DF534E533E4
:101063003CF533AF36AE35AD34AC33AB26AA27A946
:1010730028900008020C8B8B268A27892875330158
:101083007D80121A1EAB26AA27A928121A19AB268D
:10109300AA27A928E4F533FD121A1EAB26AA27A90D
:1010A300287533067DFF121A1E121A5AEF4404F5EF
:1010B30033AB26AA27A9287D83121A1EAB26AA279B
:1010C300A9287533077DFF121A1EAB26AA27A92864
:1010D3007533017D81121A1EAB26AA27A928753301
:1010E300017D80121A1EAB26AA27A92875336B7DB2
:1010F30094121A1EAB26AA27A928E4F5337D83127E
:101103001A1EAB26AA27A928121B18121A5AEF7007
:101113000DAB26AA27A928121B2150EFC322AB2609
:10112300AA27A9287533017D83121A1EAB26AA2785
:10113300A9287D92121A62EF547FAB29AA2AA92B00
:10114300120A01EFC41313135401AB2CAA2DA92EB9
:10115300120A01AB26AA27A928E4F5337D81121AC6
:101163001EAB26AA27A9287533067DFF121A1E1265
:101173001A5AEF54FBF533AB26AA27A9287D83120D
:101183001A1EAB26AA27A928121A19AB26AA27A921
:1011930028753301E4FD121A1EAB26AA27A928E4F9
:1011A300F5337DFF121A1EAB26AA27A928E4F533CF
:1011B3007D80121A1ED3228B3D8A3E893FE4FD12A5
:1011C30019E9AB43AA44A945E48FF0120AAAAB3D3F
:1011D300AA3EA93F7D46121A62EF2401FFE433AB16
:1011E30043AA44A9459000048FF0120AC990000451
:1011F3001215F5AB43AA44A94590000A120C8B7D46
:10120300511219B2121A7BAB43AA44A945900006A6
:10121300EE8FF0120AC99000061215F5AB43AA44EB
:10122300A94590000E120C8BAB3DAA3EA93F7D0150
:101233001219E9AB43AA44A945900002E48FF012C6
:101243000AC97D711219B2121A7BAB43AA44A9458C
:10125300900008EE8FF0120AC9AB40AA41A9429050
:1012630000031209D46030AB43E5452408F9E435A3
:1012730044FAC002C001120A47FFAEF0AA44A945CE
:10128300900006120A72FDC3EF9DFFEE95F0D001A8
:10129300D0028FF0120AAAAB43AA44A945900008D2
:1012A300120A72FFAEF0900002120A72FD1215FFCD
:1012B300AB43AA44A945900012020C8B8F278E26BC
:1012C3008D258C248B218A2289237533017D8012FD
:1012D3001A1EAB21AA22A923121A19AB21AA22A9E9
:1012E30023E4F533FD121A1EAB21AA22A923900091
:1012F300071209D4F5337D91121A1EAB21AA22A934
:1013030023753301E4FD121A1EAB21AA22A923E49B
:10131300F5337DFF121A1EAB21AA22A923E4F5336C
:101323007D80121A1EE4FFFEFDFCAB27AA26A92529
:10133300A824C3120C37604DAB21AA22A9237DF840
:101343001219B88E288F29E52945286016AB27AADC
:1013530026A925A824E4FCFD120AF68F278E268DE4
:10136300258C24AB21AA22A9238527318526308504
:10137300252F85242E7D0412184CAB21AA22A923E4
:101383007533048009AB21AA22A923753302E4FD36
:10139300121A1E228B218A2289237533017D801222
:1013A3001A1EAB21AA22A923121A19AB21AA22A918
:1013B30023E4F533FD121A1EAB21AA22A9239000C0
:1013C300071209D4F5337D91121A1EAB21AA22A963
:1013D30023753301E4FD121A1EAB21AA22A923E4CB
:1013E300F5337DFF121A1EAB21AA22A923E4F5339C
:1013F3007D80121A1EAB21AA22A923753301E4FDB5
:10140300121A1EAB21AA22A923121B18AB21AA224E
:10141300A923E4FD121A62EF30E01EAB21AA22A930
:1014230023121B2150E6AB21AA22A92390000674A4
:1014330001120A137EFF7FFF22AB21AA22A92312E6
:10144300174F22C0E0C083C082C0D075D000C00750
:1014530020C26BE5C054F02480603E24C060102499
:10146300E0705BE50825E0450DF5C2C2C58060303C
:10147300C121AF0DEF7058E50FC3950A40028037C5
:10148300AF0F050F74332FF582E43400F583E0F5D5
:10149300C2803CD2C4D2C58020AF0E050E742F2F5C
:1014A300F582E43400F583E5C2F0E50EC3950950F7
:1014B30004D2C1801AC2C1D2C4750B00801153C1BA
:1014C3007F43C180C2C5C2C4C2C1750B00050CC233
:1014D300C0D007D0D0D082D083D0E032120027789A
:1014E3007FE4F6D8FD7581540215290217FBE493B6
:1014F300A3F8E493A34003F68001F208DFF4802904
:10150300E493A3F85407240CC8C333C4540F4420F2
:10151300C8834004F456800146F6DFE4800B0102E1
:10152300040810204080900003E47E019360BCA374
:10153300FF543F30E509541FFEE493A360010ECF2F
:1015430054C025E060A840B8E493A3FAE493A3F859
:10155300E493A3C8C582C8CAC583CAF0A3C8C58219
:10156300C8CAC583CADFE9DEE780BEE0FCA3E0FDAD
:10157300A3E0FEA3E0FF8500418F408E3F8D3E8CAC
:101583003DAF41E4FCFDFEFB7A2F793AF8120AF6EF
:10159300EF24F4FFEE3401FEE43DFDE43CFCE47B88
:1015A300E87A03F9F8120B818F458E448D438C4200
:1015B300E47B02FAF9F8120B81C004C005C006C02F
:1015C30007E47FE87E03FDFCAB40AA3FA93EA83DAC
:1015D300120AF6D003D002D001D000EF2BFFEE3A6F
:1015E300FEED39FDEC38FCAB45AA44A943A8420201
:1015F3000B81120A72FFAEF0120A47FD8E468F4727
:10160300AF05E4FCFDFEFB7A2F793AF8120AF6EFF8
:1016130024F4FFEE3401FEE43DFDE43CFCE47BE80E
:101623007A03F9F8120B818F4B8E4A8D498C48AEA1
:1016330046AF47E4FCFDAB4BAA4AA949A848120AA6
:10164300F6C004C005C006C007E47B02FAF9F8AF90
:101653004BAE4AAD49AC48120B81D003D002D00146
:10166300D000EB2FFFEA3EFEE93DFDE83CFCE47BC6
:10167300E87A03F9F8020B81AB07AA06E4F540F513
:101683003FF53EF53DF541F542D3EB9400EA940076
:101693004058EB24FFFFEA34FFFEE48F408E3FF512
:1016A3003EF53DE4FFE53FFEE53EFDE53DFCE4FBA5
:1016B300FAF9F8C3120C37501FAF40AE3FAD3EAC42
:1016C3003D7801120C488F408E3F8D3E8C3D054284
:1016D300E54270CF054180CBE540FFE4FEAA06ABAF
:1016E30007E542FEEBFFEA4EFE22E4FEFF228B26D5
:1016F3008A2789288F2C8E2B8D2A8C29E4FFFEFDC7
:10170300FCAB2CAA2BA92AA82912088340177FB85F
:101713007EFE7DFF7C43AB2CAA2BA92AA8291208A5
:101723008360044002C322E4FFFEFD7C43AB2CAA8A
:101733002BA92AA8291206DD12093A8E418F42AB42
:1017430026AA27A9287D44121A3DD3228B248A2551
:101753008926121B18AB24AA25A9267D13121A6207
:10176300EF5407701EAB24AA25A926121B2150E5AE
:10177300AB24AA25A9269000067401120A137EFF42
:101783007FFF22AB24AA25A9267D1E1219B88E2716
:101793008F28AB24AA25A9267533017D0B121A1EA7
:1017A300AE27AF28228B268A278928ED4401F533FB
:1017B300E4FD121A1EAB26AA27A928121B18AB2672
:1017C300AA27A9287D13121A62EF5407700DAB26BE
:1017D300AA27A928121B2150E5C322AB26AA27A9B1
:1017E300287533017D0B121A1EAB26AA27A928E4FC
:1017F300F533FD121A1ED322121B41121B2A1200AB
:101803002E121B0BD2AF7B017A0079231200767B59
:10181300017A0079237F207E4E7D007C00120D0D1E
:101823007B017A0079237F007E007D007C00121209
:10183300BF20A0FDAF0BEF70FBAF0BEF70F37B018D
:101843007A00792312139780E88D2DAF31AE30AD36
:101853002FAC2E7818120C4890003BEFF0AF31AE4E
:1018630030AD2FAC2E7810120C48A3EFF0AF31AE91
:1018730030AD2FAC2E7808120C48A3EFF0E531FF02
:10188300A3EFF09000011209D4FF7B017A00793BAA
:10189300754804AD2D02189B8B458A468947AE0BCC
:1018A300EE70FB8F08E54804F50A900033EDF0E491
:1018B300FFEFC39548501EAB45AA46A9478F8275D3
:1018C30083001209D4FE74342FF582E43400F583C7
:1018D300EEF00F80DCE4F50FF50D750B01D2C52298
:1018E3008D4B8B4C8A4D894EAC07AF0BEF70FBAF22
:1018F30004FB7A00794B755401121973AF04AD4F91
:10190300121A95E4FFEFC39509501C742F2FF5822B
:10191300E43400F583E0AB4CAA4DA94E8F82758366
:1019230000120A130F80DE227D01121A62EFC454E3
:1019330001AB40AA41A942120A01EF131313540148
:10194300AB40AA41A942900002120A13EF131354A9
:1019530001900001120A13EFC41313540190000302
:10196300120A13EFC41313135401900004020A1351
:101973008B518A528953AE0BEE70FB8F0885540A44
:10198300F50FF50D750B01FFEFC39554501EAB51C9
:10199300AA52A9538F827583001209D4FE74332F80
:1019A300F582E43400F583EEF00F80DCD2C522AB80
:1019B3003DAA3EA93F9000011209D4FF7B017A00A2
:1019C3007937754F021218E3900037E07F00FE90DD
:1019D3000021F0A3EFF0900038E0FDEDFF9000212F
:1019E300EEF0A3EFF0228B468A4789488D49E549FB
:1019F30070047D50800EE54964017011AB46AA471F
:101A0300A9487D70121A62EF0425E0FF227FFF22AE
:101A1300AB21AA22A9237533017DFF90003BE53357
:101A2300F09000011209D4FF7B017A00793B7548DD
:101A33000102189BAB00AA00A900E54190003BF00E
:101A4300E542A3F09000011209D4FF7B017A0079EB
:101A53003B75480202189BAB26AA27A9287D8390D1
:101A630000011209D4FF7B017A007921754F01121D
:101A730018E3900021E0FF22AD07EEFF7E00EDA802
:101A830007088005C333CE33CED8F92401FFE43EE3
:101A9300FE22AE0BEE70FB8F088D09F50E750D015E
:101AA300750B01D2C5AF0BEF70FB22E4F591538E9A
:101AB300BF75939E75925885939585929443E6805E
:101AC300439104229000011209D4FFAB2AAA2BA947
:101AD3002C852D4802189B9000011209D4FFAB2AD4
:101AE300AA2BA92C852D4F0218E3438E0875892054
:101AF300758DD8858D8BD28E2253C17F43C1805380
:101B0300917FC2C5750B003275C15D43C18043E649
:101B13000143F60122900002120C5B02003E8B2F60
:101B23008A308931021B45121AED121B33021AAE99
:101B3300E4F5C8C2C8D2AD22D20053C83B3275B255
:051B43008322A2002234
:00000001FF
